:0400000080314A28D9
:100008007E1480310B1F09280A2848282100111E58
:100018000E280F281B282000111E132814281B281F
:10002800210051088A0050080A0080314828210020
:10003800911E1F2820282C282000911E24282528BE
:100048002C2821004F088A004E080A0080314828D1
:100058002100121C302831283A282000121C35288B
:1000680036283A2885319125803148282100111DEC
:100078003E283F2848282000111D432844284828A6
:100088008531A325803148287E10090080314C280D
:10009800F601F701F801F9012000EE01EF01A030A7
:1000A800840000308500343086310D2680312030C0
:1000B800840001308500203086310D2680317E1085
:1000C80020008131D4292000C40021003B08803A57
:1000D8002000C10080304102031D75280130210035
:1000E8003A020318782879287F2801302000C500B3
:1000F8000030C600872821003B082000C6002100E8
:100108003A082000C500210039082000C30021005A
:1001180038082000C2003908C7003A08C8003B0860
:10012800C9003C08CA003D08CB003E08CC003F0887
:10013800CD004008CE001F30CF000030D000220094
:10014800BF010529FF302000CF07FF30D03D4F0801
:10015800203E8600013087000A30A000A101A201DC
:10016800A301A401A501A601A7014708A800480802
:10017800A9004908AA004A08AB004B08AC004C0883
:10018800AD004D08AE004E08AF008231E722803145
:1001980020002008303E8100FF30C507FF30C63DF3
:1001A800FF30C207FF30C33D0A30A000A101A20101
:1001B800A301A401A501A601A7014708A8004808B2
:1001C800A9004908AA004A08AB004B08AC004C0833
:1001D800AD004D08AE004E08AF0082316322803179
:1001E80020002008C7002108C8002208C9002308E9
:1001F800CA002408CB002508CC002608CD00270813
:10020800CE0020004F08500403190B290C2925297A
:100218004708480449044A044B044C044D044E045E
:10022800031D17291829A6284608803AC1008030DE
:100238004102031D212901304502031824292529DB
:10024800A62820004F08203EB0004308B20042080C
:10025800B100440884314E24803108002000DF00BA
:10026800510886008701403FD300413FD40053081E
:100278008400540885001200253A031D44294529A5
:10028800BB295108860087010130810741310318D5
:10029800810A2100B801B9010310003003180130A8
:1002A800D200FF30BA00FF30BB00200051088600A2
:1002B8008701403FE000413FE10060088400610899
:1002C80085001200753A031D6A296B29B129520865
:1002D8008600870101088400850102308107003FFC
:1002E800D700013FD800D901DA01DB01DC01DD01CB
:1002F800DE016008013ED3000030613DD4005108A2
:10030800860087015308C03F5408C13FA0295708F9
:10031800B9005808BA005908BB005A08BC005B0865
:10032800BD005C08BE005D08BF005E08C0005F0835
:10033800803167208131D3296008840061088500F5
:100348000008D300D4015408003A0319AC29B12994
:100358005308753A03198B29B129200051088600E2
:1003680087010130810741310318810AD3295108D7
:1003780086008701403FD300413FD40053088400E2
:10038800540885000008D500D6015508A100560874
:10039800A2005F08A300833158238131B1290800E6
:1003A8002100D401D501D601D70185310E2581312F
:1003B8008B170B174330F4000630F50086313726CB
:1003C80081315630F4000530F5008631312681310F
:1003D8002100560A031DF429570A031DF429F5299B
:1003E800FA290130D4000030D500022A56085704F3
:1003F800031DFF29002A022AD401D50154085504F7
:10040800031D072A082A0C2A0130D6070030D73DD9
:1004180054035504031D112A122A162A0130D60244
:100428000030D73B5708F5005608F40086313D26C2
:100438008131863155268131FD302000E900853033
:10044800EA00210057082000EC002100560820008F
:10045800EB008531C5258131F4302000E900853075
:10046800EA00210041082000EC002100400820009B
:10047800EB008531C5258131EA302000E90085305F
:10048800EA00210045082000EC0021004408200073
:10049800EB008531C5258131DF302000E90085304A
:1004A800EA00210043082000EC0021004208200057
:1004B800EB008531C5258131EC2980314A2830305F
:1004C8008600003087000830F40000301E00F40B6E
:1004D8006A2A200020082104220423042404250475
:1004E800260427040319792A7A2AD62AB801B80AD1
:1004F800892AA035A10DA20DA30DA40DA50DA60D49
:10050800A70D0130F4007408B807A71F8C2A8D2A9C
:100518007D2AB035B10DB20DB30DB40DB50DB60DC4
:10052800B70D27082F02031DB32A26082E02031D24
:10053800B32A25082D02031DB32A24082C02031D03
:10054800B32A23082B02031DB32A22082A02031DFB
:10055800B32A21082902031DB32A20082802031CF4
:10056800B62AB72AC82A2008A8022108A93B2208C7
:10057800AA3B2308AB3B2408AC3B2508AD3B260827
:10058800AE3B2708AF3B3014A736A60CA50CA40C2D
:10059800A30CA20CA10CA00C0130B802031DD52A93
:1005A800D62A8D2A3008A0003108A1003208A200FE
:1005B8003308A3003408A4003508A5003608A600AF
:1005C8003708A7000800200020082104220423047B
:1005D80024042504260427040319F32AF42A472BA4
:1005E800F501F50A032BA035A10DA20DA30DA40D4D
:1005F800A50DA60DA70D0130F4007408F507A71F77
:10060800062B072BF72A27082F02031D252B260860
:100618002E02031D252B25082D02031D252B24083A
:100628002C02031D252B23082B02031D252B220832
:100638002A02031D252B21082902031D252B20082A
:100648002802031C282B292B392B2008A802210853
:10065800A93B2208AA3B2308AB3B2408AC3B25084E
:10066800AD3B2608AE3B2708AF3BA736A60CA50C2A
:10067800A40CA30CA20CA10CA00C0130F502031DC4
:10068800462B472B072B2808A0002908A1002A0879
:10069800A2002B08A3002C08A4002D08A5002E08F2
:1006A800A6002F08A70008002000230803195D2BC7
:1006B8005E2B632B2308031D622B632B682B2108F9
:1006C8008631062683319A2B2308083E8600870147
:1006D800160001040319712B722B902B2308083E76
:1006E80086008701403FA400413FA5002308023E41
:1006F80086008701403FA600413FA7002708803AAF
:10070800A8002508803A2802031D8C2B24082602FD
:1007180003188F2B902B9A2B20002308023E86006B
:1007280087010130810741310318810A080021003F
:1007380091121530F4000430F50086311926833102
:1007480021001112D030F4000430F5008631132650
:100758008331083023009F0090309D0024309E0094
:1007680044309B009C015830F4000630F500863177
:10077800252683314D30F4000630F50086311F26DA
:1007880083315130F4000630F50086312B26833151
:100798002100D301F901F80108302000EF00F7012A
:1007A800F601EE0121009116080022008C018D014E
:1007B8008E01083021009000FF308C00FB308D0046
:1007C800EF308E00403023008E003B308D003F30EC
:1007D8008C00240090018D018C0180308E00210056
:1007E800971325008C018D018E01FF3026008C00A7
:1007F800FF308D00FF308E003F3027008C00F03036
:100808008D00FF308E0015303C00BD0013309A007B
:100818001F303D009A002430A40012303C0099009B
:1008280008007708A03E86008701810123001D1D6E
:100838001E2C1F2C2A2C7708A03E860087018114C5
:1008480021004D088A004C080A00843123009D1CB1
:100858002E2C2F2C3A2C7708A03E860087010115F4
:1008680021004B088A004A080A0084317708A03E14
:100878008600870101080319422C432C4A2C2100C9
:1008880049088A0048080A0084314D2C85312725FB
:10089800843108002000B800B21B532C542C592C6A
:1008A8003208B7003108B6005B2CB601B701B401B5
:1008B800B5016D2C20302000A1000030A2003808BE
:1008C800A30083315823843101302000B40700305D
:1008D800B53D3508803AB3003708803A3302031D26
:1008E800772C36083402031C7A2C7B2C5E2C2000D3
:1008F8003808A90030088431AB2484310800F50099
:1009080020006F080319892C8A2C842C2100111AC5
:100918008E2C8F2C932C750823009A00A82C11126A
:100928007908B03E86008701750881000130F4001F
:100938007408F90708307902031CA32CA42CA52CF1
:10094800F90101302000EF022100111608002000F3
:10095800AC00AE01AF01C12C2D08AA00AB012A08DA
:10096800A1002B08A2002908A30083315823843151
:1009780001302000AE070030AF3D2E082C07AA003A
:100988002A088600013087000108AD002D08031DE4
:10099800CE2CCF2CB02C0800083020006F02031892
:1009A800D62CD72CEF2C7808B03E8600870101089A
:1009B80023009A000130F0007008F8070830780228
:1009C800031CE72CE82CE92CF8010130F000700832
:1009D8002000EF07F12C2100111208002000E6008A
:1009E8006308E8006208E700012D6730D100640859
:1009F800D2006608813132218431200067088400E2
:100A0800680885001200031D0A2D0B2DF92CE20140
:100A1800E30108008331D92385318531D325853118
:100A280086314926853185313F25853185316D25CA
:100A3800853185317F2585318531B52585318331EE
:100A48009B23853108007708A83E8600870123008C
:100A5800190881000130F0007008F70708307702A4
:100A6800031C372D382D392DF7010130F00070089F
:100A78002000EE0708003B00BC01BD011030BE009D
:100A8800BF01C001B201B101B401B301FF30B6002A
:100A9800FF30B500B8011F30B700BA01B901803086
:100AA800BB00080071082100C3007008C200450897
:100AB8004302031D612D440842020318642D652D6D
:100AC800662D6C2D44084202C0004508433BC10016
:100AD8000800843025009700960195019801593047
:100AE800F4000630F50086313126853120001210D9
:100AF800210012140800853025009300920191010D
:100B080094015A30F4000630F500863137268531D5
:100B180020001111210011150800200012102500D5
:100B28001508F2001608F3007308F1007208F000C7
:100B380021003D088A003C080A0085310800200091
:100B4800111125001108F2001208F3007308F100D2
:100B58007208F00021003F088A003E080A0085312B
:100B6800080020009B019901980111101908210023
:100B7800C700200018082100C600313020009A0064
:100B880008006B302000ED006A08E3006908E20005
:100B98006D30E40000308431F22485310800703073
:100BA80021009B0080309C009A019D011C1FDD2DB7
:100BB800DE2DDA2D080066345F34703475346C34F9
:100BC80073346534253475340A34003472345F3430
:100BD800703475346C3473346534253475340034AA
:100BE800773469346434743468343A342534753469
:100BF80000340D3464347534743479343A3425341B
:100C0800753400342000A000200884318324863104
:100C18000800640080010131890B0E2E003475082C
:100C28002100D1007408D000080075082100CF0009
:100C38007408CE00080075082100CB007408CA00AB
:100C4800080075082100CD007408CC00080075085C
:100C58002100C9007408C800080075082100BD00FB
:100C68007408BC00080075082100BF007408BE00A5
:100C7800080075083B00B4007408B3000800710848
:100C88002100C5007008C400080016302100990032
:100C9800080023001D121D160800853127258631FE
:0E0CA80008003B00BF17080008000800080005
:020000040001F9
:08000000FF3FFF3FFF3FFF3F00
:04000E00E43FFF1FAD
:00000001FF
